:040000003FEF00F0DE
:0C000800D9CF3CF0DACF3DF051EF07F00B
:10001800D8CF2EF0E8CF2FF0E0CF30F0D9CF31F0A5
:10002800DACF32F0F6CF33F0F7CF34F0F8CF35F03F
:10003800F5CF36F0F2BAF2A403D0E9EC05F008D017
:10004800F2B6F2A005D0F5EC04F080508150F290A1
:1000580036C0F5FF35C0F8FF34C0F7FF33C0F6FFF0
:1000680032C0DAFF31C0D9FF30C0E0FF2FC0E8FF4F
:0A0078002EC0D8FF1000B2EF07F011
:100200000000A022364B5A6F024E78630718018017
:10021000257E306D79335B5F707F7B0919434161C7
:10022000657D771F4E3D4F475E373038570E547609
:100230007E6773665B0F3E3A2A373B694E137862DE
:100240000802771F4E3D4F475E373038570E5476C1
:100250007E6773665B0F3E3A2A373B6900000000F9
:1002600000000000000000FF0100010000FFFF008F
:1002700000010001FF007E306D79335B5F707F739A
:1002800053544F5050454400524541445900505733
:1002900052005345540046494E000000020E000132
:1002A0006D6F7CEC05F040C00FF041C010F0640EA3
:1002B00015246B6F000E16206C6F02D023B2F7D797
:1002C0006B51155C6C511658F9E3920E32EC03F049
:1002D0000FC064F010C065F0676B0A0E666FB9EC72
:1002E00004F064516E6F30EC07F00FC065F010C081
:1002F00066F031EC04F019A49DD06D5118EC08F0B3
:1003000099D01DA418D030EC07F0010E00016D6FDC
:10031000416A0A0E406E0FC03EF010C03FF0E9EC9B
:1003200003F03EC064F03FC065F0676B0A0E666F75
:10033000B9EC04F05DD019A284D0199248506E2710
:100340006EAF03D0090E6E6F32D06E51800A760FF9
:1003500005E36E6BF70E34D0102273D048500F2691
:10036000000E48BEFF0EF8D71DA417D030EC07F0E2
:1003700000016D6B416A640E406E0FC03EF010C00C
:100380003FF0E9EC03F03EC064F03FC065F0676BFE
:100390000A0E666FB9EC04F02BD019A252D0199254
:1003A00048506E276EAF06D0090E6E6F5A0E0F269C
:1003B000000ED2D76E51800A760F04E36E6BA60E44
:1003C0000F26D0D768D80A0E406EC3EC06F02ED0A8
:1003D0001DA411D030EC07F0020E00016D6F0FC0AC
:1003E00064F010C065F0676B0A0E666FB9EC04F03C
:1003F00064516E6F26D019A224D0199248506E27EE
:100400006EAF06D0090E6E6F840E0F26030EA4D7B2
:100410006E51800A760F05E36E6B7C0E0F26FC0E84
:100420009BD739D8640E406EC3EC06F03E500F26C1
:100430003F5092D76D51CCE0010A96E0030A01E1EA
:1004400060D723A411D00FC065F010C066F031EC66
:1004500004F00FC068F010C069F076EC04F030ECE6
:1004600007F0020E1B6E020C23A20CD015500B5C81
:1004700016500C5807E28E0EC6EC05F01C8A060ECC
:100480001B6E060C23B231D7DC0E15240B6E050E45
:1004900016200C6E2AD748503E6E3F6A3EBE3F067D
:1004A000416A1200F29E28EC06F051EC08F0F28E40
:1004B000F28C198C30EC07F05AD019AC06D0199C8C
:1004C000880E32EC03F065D806D01550115C16503A
:1004D0001258D8A0198C1CA859D01C9830EC07F0E1
:1004E000010E1B6E53D04CEC08F04EEC01F04ED0D8
:1004F0007FEC07F04BD025EC05F048D07FEC07F0FF
:1005000052EC05F043D01AA259EC08F01AA402D01C
:100510001A94B99019AA06D0199A800E32EC03F0F9
:1005200038D806D01550115C16501258D8A0198A28
:100530001CA82CD01C98198A29D01CAA13D01C9A4C
:10054000F40E1524116E010E1620126E03D023A096
:1005500023B2F6D71150155C12501658F8E330EC60
:1005600007F01986DEEC07F011D01B6A0FD01B5084
:10057000A4E0010AB8E0030ABBE0010ABCE0070AF4
:10058000BDE0010AC0E0030AD8E0EFD7D0EC02F0EA
:10059000EED7EE0E1524116E020E1620126E12000A
:1005A0008ABE02D01AA654D023B402D01DA41200D1
:1005B0001A968A9E1A888B8230EC07F0199E198A47
:1005C000050E1B6E050C23A4120030EC07F0199CDD
:1005D000010E1B6E010C23A4120030EC07F01AA2CE
:1005E00059EC08F01986030E1B6E030C23A41200AD
:1005F00030EC07F01AA259EC08F01AA4E9D71A94C3
:10060000B990E6D723A21BD01550095C16500A58A2
:1006100016E2BDEC07F0FA0E1524426E000E16200D
:10062000436E02D023B2F7D74250155C43501658A0
:10063000F9E330EC07F0199A198C1B6A120023B207
:100640001200EE0E1524096E020E16200A6E12001C
:100650001B50B9E0020ABFE0060AC8E0010AD8A4AC
:100660001200D0D70001636F656BBDEC07F034D08A
:1006700023B402D01DA404D023941D941C8812001E
:100680003FD8F5CF60F0646B6451020FD96EDA6A1F
:100690006451010FE16EE26ADFCFE7FF642B010EC8
:1006A0006465F2D760C043F0E00E43264350010F6B
:1006B000446E44C0F6FF020EF76E0800F5CF03F05B
:1006C0006BEC08F0140E1324000123D86151135C65
:1006D00062511458FBE3652B000112D8F550C8E1B4
:1006E000656B1FEC07F0140E132413D86151135CD3
:1006F00062511458FBE3652B020E6565F2D7020CBC
:1007000063516525436E43C0F6FF020EF76E080085
:100710001200616F000E1420626F1200010E81BC86
:10072000000E296E0D504DD8010E82B0000E296EBC
:100730000E5047D8010E80B4000E296E0F5041D8DC
:100740002B6A2B5037D8040ED926DECF29F0DDCF07
:100750002AF02950155C2A50165827E32B502AD826
:10076000DFA015D02B5026D8DFB211D02B5022D8C5
:10077000DF821E0E1524296E000E16202A6E2B50C5
:1007800019D8040ED92629C0DEFF2AC0DDFF2B5060
:1007900011D8DFB00AD02B500DD8DFA206D02B50D5
:1007A00009D8DF842B5006D8DF922B2A010E2B6448
:1007B000C8D7010C0D0FD96EDA6ADF50D96EDA6A2C
:1007C0001200D96EDA6ADF502918FE0B2918DF6E85
:1007D00012000001616B41503FD8D8B4405C06E282
:1007E000406C411ED8B0412A010E616F3F5034D891
:1007F000D8B43E5C06E23E6C3F1ED8B03F2A010EE4
:10080000611B626B636B415040101BE0010E606F17
:1008100004D0D89040364136602B41AEFAD7D890FC
:100820006237633740503E5C41503F5805E34050CB
:100830003E5E41503F5A6281D89041324032602F33
:10084000EED7615104E0626D631FD8B0632B62C0C4
:100850003EF063C03FF01200800AF36E800EF35C3E
:10086000000C416A640E406E65C03EF066C03FF009
:10087000A1EC05F032D809EC06F06051686F416ACE
:100880000A0E406E65C03EF066C03FF0A1EC05F078
:1008900024D809EC06F06051696F65C060F066C04D
:1008A00061F0636B0A0E626F09EC06F060516A6FCB
:1008B00068510BD8F5CF01F0695107D8F5CF02F098
:1008C0006A5103D8F5CF03F01200760F676F67C047
:1008D000F6FF020EF76E080012003EC060F03FC047
:1008E00061F00001636B0A0E626F0A0C68C064F06D
:1008F00069C065F0676B0A0E666FB9EC04F064516D
:10090000446E65EC08F03F6A030E3E6E44C040F052
:1009100066EC06F00A0E426E416A406E68C03EF018
:1009200069C03FF0E9EC03F03E50D6EC06F0446EAF
:1009300065EC08F03F6A040E3E6E44C040F066EC81
:1009400006F00A0E426E416A640E406E68C03EF0C8
:1009500069C03FF0E9EC03F03E50D6EC06F0446E7F
:1009600065EC08F03F6A050E3E6E44C040F066EF4D
:1009700006F0436A65512CEC04F0D8B4645D06E2DD
:10098000646D651FD8B0652B010E436E67512CEC6A
:1009900004F0D8B4665D04E2666D671FD8B0672BBB
:1009A0006751661117E0010E426E04D0D890663789
:1009B0006737422A67AFFAD76651645D6751655958
:1009C00004E36651645F6751655BD89067336633B3
:1009D000422EF2D7435004E0646D651FD8B0652BFA
:1009E00064C064F065C065F01200050E2B6E2B0626
:1009F0002B28FDE145C046F081380F0B030B456EF7
:100A00004644E846FC0B4510476E47C029F00F0EE0
:100A100029162950660F2A6E2AC0F6FF020EF76EBD
:100A20000800F5CF48F0485018261850020A05E192
:100A3000494A4A2A1982186A12001850FE0AD8A494
:100A400012004906D8A04A06F5D719A609D019966A
:100A5000199019A0FED71A868A8E1990198E120045
:100A600019A00AD019900F06D8A010060FC065F083
:100A700010C066F031EC04F01050800AF36E800E66
:100A8000F35C010ED8B40F5CD8B012001A968A9E9F
:100A9000199E1A888B821C80960EC6EC05F0040EF7
:100AA0001B6E040C1CA016D0176A076A086A1C90FB
:100AB00011D01DD8D8B012001A84B98011D8010EF7
:100AC000176E010C14D8D8B012001A94B99008D837
:100AD000176A12001750EDE0010AD8A41200F2D7ED
:100AE000F40E1524076E010E1620086E1200155024
:100AF000075C165008581200606B616B010E626F44
:100B0000646B030E64253E6E3F6A000E3F2206ECC6
:100B100008F00001636F6329D8B4636B635162030B
:100B2000F3506027F45061230A0E6203F350626FA2
:100B3000642B020E6465E5D760C040F061C041F0EF
:100B4000020C426A436A415040101BE0010E446EA1
:100B500004D0D89040364136442A41AEFAD7D890D6
:100B60004236433640503E5C41503F5805E34050CA
:100B70003E5E41503F5A4280D89041324032442E2E
:100B8000EED742C03EF043C03FF01200426E436ACF
:100B9000425043243E6E3EC0F6FF020EF76E080040
:100BA000F5CF3FF0E00E3F263F50010F406E40C0B2
:100BB000F6FF020EF76E0800F5CF41F04350010F2B
:100BC000D96EDA6A41C0DFFF432A020E4364E0D7E0
:100BD000020CF294154A162A15B08EEC03F015C0DB
:100BE00029F016C02AF0010E2C6EF40E2B6E47EC85
:100BF00006F02A5029100AE1197419AE07D019A479
:100C000003D01A888B8202D01A988B92060ED66E69
:100C1000060C6351621117E0010E646F04D0D89086
:100C200062376337642B63AFFAD76251605D6351FB
:100C3000615904E36251605F6351615BD890633333
:100C40006233642FF2D760C060F061C061F01200BF
:100C5000BD6AC69AAB9EC2906D9E6B9E689EBA9E00
:100C6000BB9EF2EC07F036EC08F09AEC07F00FECC4
:100C700008F020EC08F0E8EC07F09AEC06F042EC03
:100C800008F071EC07F068EC08F080EF06F02C50EB
:100C90002B1017E0010E2D6E04D0D8902B362C3679
:100CA0002D2A2CAEFAD72B50295C2C502A5804E35D
:100CB0002B50295E2C502A5AD8902C322B322D2EB4
:100CC000F2D729C029F02AC02AF012003EC0A9FF9D
:100CD00040C0A8FFA69EA69CA684000EF2BE010EF0
:100CE000416EF29E550EA76EAA0EA76EA682A6B200
:100CF000FED741B002D0F29E01D0F28EA69412002F
:100D00001D901D921D940F0E1F6E810E1E6E060EFD
:100D1000206E216A226A2390239223940F0E256E5F
:100D2000820E246E266A276A286A1D0E0D6E230E17
:100D30000E6E12009388938A938C7888788A788CC8
:100D4000F19E7A887A8A81380F0B030B456E45C075
:100D500046F0486A496A4A6AF290F2861200426A8C
:100D60004250010FD96EDA6ADF6A422A020E4264EB
:100D7000F7D7436A406A4328C8EC07F0432A020EBB
:100D80004364F8D7020C3E504002F3CF42F0F4CF58
:100D900043F03E504102F35043263F504002F3508F
:100DA000432642C03EF043C03FF01200646F080E7D
:100DB000656F666BD89064356635666FD89064371A
:100DC0004250665D02E34250665F652FF3D766517D
:100DD00012003E6E3F6A3F6A3EAE02D08B8E01D05B
:100DE0008B9E8B8600F08B96D8903E363F2A070E5E
:100DF0003F64F2D7070C376E386A386A37AE02D0D4
:100E00008B8E01D08B9E8B8600F08B96D8903736D8
:100E1000382A070E3864F2D7070CCF8E9E901980BF
:100E2000042A04503C0AD8A41200046A052A05507A
:100E30003C0AD8A41200056A062A065012003E6A2F
:100E40003E50020FD96EDA6A3E50010FE16EE26A3F
:100E5000DFCFE7FF3E2A010E3E64F2D7036A12009D
:100E60003E6A3E50DAEC03F0DF943E50DAEC03F0D9
:100E7000040ED926DE6ADD6A3E2A010E3E64F1D7F1
:100E8000010C426A426A4250010FD96EDA6ADF50A1
:100E9000406E4228C8EC07F0422A020E4264F3D7A3
:100EA000020C9DB09EA003D00DEC07F005D0A0B2BF
:100EB000A1A202D0A6EC07F03DC0DAFF3CC0D9FFEA
:100EC00011003B6A3B6A3B50010FD96EDA6ADF5072
:100ED000396E3B28D3EC07F03B2A020E3B64F3D774
:100EE000020C949A8F0EB616100EB96EB60ECB6E1B
:100EF000050ECA6E120EBE6E3C0EBD6E3C0C19B4D1
:100F00001CA604D05DEC08F01C96120019A41CB6B7
:100F1000120059EC08F01C8612008B9C8B968B9E5D
:100F200000F0949E9496949C00F08B8C55EC08F005
:100F3000AFEF06F0896A8A6A8B6A92689368946850
:100F40007E6A7F6A786A776AF18E1200A19271ECEC
:100F500008F0134A142AB190630EB36EC00EB26E3D
:100F6000B180C00C00EE01F0280EEE6AE806FDE14B
:100F7000000EF86E000152EF02F03E6A3E50010F83
:100F8000D96EDA6ADF6A3E2A020E3E64F7D7020C97
:100F9000416E8B9C4150E9EC06F000F04050E9ECCA
:100FA00006F08B8C12003A6E8B9C3A50FBEC06F0EC
:100FB00000F03950FBEC06F08B8C120019A605D01E
:100FC00019961A868A8E198E120019B0199012007D
:100FD000800EB16E630EB36EC00EB26EA192A0828F
:100FE000B180C00CD3508F0B6009D36EFC0ED316AA
:100FF000D2949B9C9B9EFC0C8DEC07F0020E28EC7F
:1010000008F0070E2FEC08F047EF08F03EC0A9FFEC
:10101000A69CA69EA68000F000F0A8501200520EDA
:10102000D56ED76A060ED66EF294F28A6FEF08F08C
:101030003E6E3E50010FD96EDA6A000EDB8E000C58
:101040000E0ECD6E800ECF6E9E909D806DEF08F0DF
:10105000426E4250070B406E0B0EC8EF07F0426E17
:1010600042500F0B406E0A0EC8EF07F0D08E9F80E3
:10107000F194A282F1901200426E42C040F0090E3B
:10108000C8EF07F0948094921A888B821200010EA8
:10109000406E0C0EC8EF07F0199219961990199826
:1010A0001200FCEC07F01A821200406A0F0EC8EF23
:1010B00007F047EC08F01A82120061EC08F01A926F
:1010C0001200406A0C0EC8EF07F0A6A21200FDD76E
:1010D0008A9E939E120041EF07F0CD801200D58EBC
:0610E000120061EF07F0B1
:020000040030CA
:0E000000FF88181EFF0081FF03C003E00340CD
:00000001FF
